:020000040800F2
:1000000080200020E503000875430008F93F000840
:1000100045430008891E0008D54E00080000000076
:1000200000000000000000000000000025030008A0
:10003000671F00080000000081030008A1450008B8
:10004000FF030008FF030008FF030008FF03000888
:10005000FF030008FF030008FF030008FF03000878
:10006000FF030008FF030008FF030008B91E000893
:10007000FF030008FF030008FF030008FF03000858
:10008000FF03000800000000FF030008FF03000852
:10009000FF030008FF030008FF030008FF03000838
:1000A000FF030008FF030008FF030008FF03000828
:1000B000FF030008FF030008FF030008FF03000818
:1000C000FF030008FF030008FF030008FF03000808
:1000D000FF030008714E0008FF030008FF0300083B
:1000E000FF030008FF030008FF030008FF030008E8
:1000F000FF030008FF030008FF03000800000000E2
:1001000000000000FF03000800000000FF030008DB
:10011000FF0300080000000045460008FF03000838
:10012000FF030008FF030008FF030008FF030008A7
:10013000FF0300080000000000000000FF030008AB
:10014000FF030008FF03000800000000000000009B
:10015000000000000000000000000000000000009F
:10016000000000000000000000000000FF03000885
:10017000FF03000800000000000000000000000075
:1001800000000000FF030008000000000000000065
:10019000000000000000000000000000000000005F
:1001A0000000000000000000FF030008FF0300083B
:1001B000FF030008FF030008FF0300080000000021
:1001C00000000000FF030008000000000000000025
:1001D000FF030008FF03000800F002F800F092F8A7
:1001E0000AA090E8000C82448344AAF10107DA4592
:1001F00001D100F087F8AFF2090EBAE80F0013F052
:10020000010F18BFFB1A43F001031847CC5C000034
:10021000EC5C0000103A24BF78C878C1FAD85207C5
:1002200024BF30C830C144BF04680C607047000070
:100230000023002400250026103A28BF78C1FBD8EF
:10024000520728BF30C148BF0B6070476E2900F0CD
:100250008B83702900F0D784662905F060846529B6
:1002600005F05D84672905F05A84612905F05984F9
:1002700003681B0A28BF41F08001692900F08681CC
:10028000642900F08381752900F080816F2900F0D6
:100290006484782900F0A384E92900F0FF83E4292D
:1002A00000F0FC83F52900F0F983EF2900F0618468
:1002B000F82900F0A2840368DB0928BF41F080011F
:1002C000632900F06F83732900F07483E32901F040
:1002D0009D80F32901F0A280002070471FB505F032
:1002E00019FC01F0F1F804000020002105F0FCFBEE
:1002F000401C60600020002105F0E0FBE0601FBDB5
:1003000010B510BD01F0B2F81146FFF7E7FF04F099
:1003100077FE01F08FF903B4FFF7F2FF03BC04F09E
:1003200034FE00002C4B19680868B0E8F04F80F3E9
:100330000988BFF36F8F4FF0000080F3118870477A
:100340000000000008480068006880F308884FF04B
:10035000000080F3148862B661B6BFF34F8FBFF31D
:100360006F8F00DF00BF00BF08ED00E0DFF80C007A
:10037000016841F470010160704700BF88ED00E042
:10038000EFF30980BFF36F8F134B1A681EF0100F45
:1003900008BF20ED108A20E9F04F106009B44FF03B
:1003A000500080F31188BFF34F8FBFF36F8F05F0BC
:1003B000CFF94FF0000080F3118809BC1968086874
:1003C000B0E8F04F1EF0100F08BFB0EC108A80F3B9
:1003D0000988BFF36F8F704724000020EFF305807A
:1003E000704700000948804709480047FEE7FEE7DC
:1003F000FEE7FEE7FEE7FEE7FEE7FEE7FEE7FEE7D5
:1004000004480549054A064B704700003546000878
:10041000D9010008801000208020002080180020D2
:100420008018002053EA020C00F069802DE9F04B9F
:100430004FF00006002B1FBFB3FA83F503FA05F453
:1004400024FA05F65E4012BF1643B2FA82F502FAAC
:1004500005F4C5F120051EBF22FA05FC44EA0C0490
:10046000203556EA044C4FEA144418BF641C4FF080
:1004700000084FF00009904271EB030C39D30029BA
:1004800019BFB1FA81F701FA07F6B0FA80F700FA5E
:1004900007F6C7F120071EBF20FA07FC46EA0C0644
:1004A0002037B6FBF4FCA7EB0507103F07F01F0B46
:1004B000CBF120060CFA0BFB2CFA06F644BFB34630
:1004C0000026202FA4BF5E464FF0000B5BEA060C0F
:1004D00008BF4FF0010B19EB0B09ABFB027C48EB9B
:1004E0000608C01B06FB02CC0BFB03CC71EB0C0116
:1004F000C1E70B46024641464846BDE8F08B13B5BE
:100500004FF000004FF00001AFF30080BDE81C4049
:10051000704700000A46014900F050BA1000002060
:100520000FB4044910B503AA029800F047FA10BCB2
:100530005DF814FB1000002070B50C460546012A3A
:1005400005D02878800600D5EA69002302E001235F
:1005500005E05B1C934202D2E05C0028F9D1A86957
:10056000E618C01AA861286A18442862284600F0D4
:1005700069F904E0D5E9012114F8010B9047B44270
:10058000F8D3284600F074F970BD00002DE9F04161
:100590000646002410687529314616A510D000F0D3
:1005A00078F9002802DA404213A507E031688A078B
:1005B00001D512A502E0490704D511A5012401E0E7
:1005C00000F070F900210A2206F1240709E0B0FBCF
:1005D000F2FCB0FBF2F302FB1C00303078541846FA
:1005E000491C0028F3D123462A463046BDE8F04195
:1005F00000F061B9000000002D0000002B00000099
:10060000200000002DE9F05F894604464FF0000A03
:10061000DFF874B1FB44C0F820A02046E1688847A9
:10062000002874D0252806D0D4E901219047206AFB
:10063000401C2062F1E700265F462046E1688847BB
:100640002028054607DB312D05D2781910F8200C3B
:1006500008B10643F1E7B00701D526F00406C4F857
:100660001CA00027C4F818A02A2D09D0284604F0A1
:1006700085FC38B304EB8708303DC8F8185019E002
:1006800059F8041B204604EB87029161E168884712
:10069000012F054618D1E069002820DA26F020064F
:1006A0001DE0D8F8180000EB800005EB4000303862
:1006B000C8F818002046E1688847054604F05EFC4B
:1006C0000028EED1012F0AD02E2D08D12046E16856
:1006D00088477F1C0546022F46F02006C4DBA06930
:1006E000002803DA404246F00106A061F00701D07D
:1006F00026F010066C2D0BD0682D09D04C2D39D06A
:100700006A2D35D0742D35D07A2D33D016E038E0EF
:10071000E1682F4620468847B842054609D16C2F2C
:1007200026D04FF48060E16806432046884705469E
:1007300004E06C2F1AD04FF4807006430DB3A5F17E
:100740004100192802D8203546F400664A46294659
:10075000204626604E46FFF779FD80B101280BD078
:10076000F61D26F0070000F1080956E74020E4E7EF
:100770008020D8E70020D6E706F104094DE7284697
:1007800052E7206ABDE8F09F9F57000010B5203A5D
:10079000C0F00B80B1E81850203AA0E81850B1E83A
:1007A0001850A0E81850BFF4F5AF5FEA027C24BFF0
:1007B000B1E81850A0E8185044BF18C918C0BDE8E7
:1007C00010405FEA827C24BF51F8043B40F8043BB0
:1007D00008BF7047D20728BF31F8023B48BF11F865
:1007E000012B28BF20F8023B48BF00F8012B7047BF
:1007F0004FF0000200B5134694469646203922BFBA
:10080000A0E80C50A0E80C50B1F12001BFF4F7AF04
:10081000090728BFA0E80C5048BF0CC05DF804EBE6
:10082000890028BF40F8042B08BF704748BF20F854
:10083000022B11F0804F18BF00F8012B7047704752
:100840007047704770B5044685690068C10601D5D8
:10085000302600E02026C00707D070BDD4E9012172
:1008600030469047206A401C20626D1EF6D570BD50
:1008700070B5044685690078C00707D170BDD4E91A
:10088000012120209047206A401C20626D1EF6D571
:1008900070BD09684A0501D540B27047C905FCD54D
:1008A00000B2704709684A0501D5C0B27047C90552
:1008B000FCD580B270472DE9F0470D469946924627
:1008C000044600F124080168880604D5E06921F097
:1008D0001001216000E00120A84201DD471B00E07B
:1008E0000027A1697A1902EB0900081AA061207893
:1008F000C00602D42046FFF7A5FF002608E0D4E991
:1009000001211AF806009047206A401C761C2062DC
:100910004E45F4DB2078C0060AD52046FFF792FF4B
:1009200006E0D4E9012130209047206A401C206273
:10093000381EA7F10107F4DC07E0D4E9012118F81B
:1009400005009047206A401C2062281EA5F1010581
:10095000F3DC2046FFF78CFF2078000602D502204A
:10096000BDE8F0870120FBE711680268006A5305C3
:1009700001D508700AE0D30501D5088006E013060A
:1009800003D5C217C1E9000200E0086001207047EA
:1009900010B5436913B1AFF3008001E0FFF7CCFD60
:1009A000012010BD127800F124010A7000224A7063
:1009B0000122EDE711684FF0FF32E9E7074B70B510
:1009C0000D467B4400F005FD0446284600F02AFD54
:1009D00010B14FF0FF3070BD204670BD03460000DF
:1009E0002DE9FF5F15468A460446DFF8AC80F844DF
:1009F0000027D8E900103E46CDE9001010E03AF893
:100A000016106A4602A800F011FD411C07D021789B
:100A1000890603D5E269391891420DD80744761C3E
:100A20002078800602D5E069B84205DDAE42E6DBFB
:100A30003AF816000028E2D1A069C01BA061204648
:100A4000FFF700FFD8E90010CDE90010002017E003
:100A50003AF818106A4602A800F0E8FCB0F1FF3F2F
:100A600081460BD000250DF1080B05E0D4E90121EA
:100A70001BF8050090476D1C4D45F7D308F10100A8
:100A8000B0428046E4DB206A384420622046FFF70B
:100A9000EFFEBDE8FF9F0000D65300002DE9F041B6
:100AA0008046D21D22F007020025D2E90002F52976
:100AB00015A614D0011E72F1000106DA0023D0EB56
:100AC000030063EB020211A608E0D8F800108B07C0
:100AD00001D50FA602E0490701D50EA60125114652
:100AE000002408F1240704E000F09CF830323A5565
:100AF000641C50EA0102F7D12B463246214640469B
:100B0000BDE8F041FFF7D7BE000000002D00000057
:100B10002B0000002000000030B4002100F124046C
:100B200008E002F00705D208303542EA4372DB08DC
:100B30006554491C52EA0305F3D10468002310A24E
:100B4000250707D5A40600D421B1C46901230DA24D
:100B5000641EC46130BCFFF7AEBE10B5044621462A
:100B60001068FFF79FFE02462046BDE810400023B4
:100B7000D2E7D21D22F00701D1E90023CCE7000023
:100B80000000000030000000F0B40D4601880905A7
:100B900002D5214C7C4402E01F4C7C440E340021E1
:100BA00000F1240608E002F00F071209E75D42EAAF
:100BB00003721B097754491C52EA0307F3D10278E8
:100BC0000023120704D5702D06D009B10223113479
:100BD0002246F0BCFFF76FBE01231034F8E770B572
:100BE00004460D4621461068FFF75CFE0246294682
:100BF0002046BDE870400023C6E7D21D22F007035F
:100C0000D3E90023C0E70368126843F020030360C0
:100C10000823C3610023B7E738520000004870473B
:100C20001C10002030B5B0F10A024FEA900E71F1AD
:100C300000034EEA817EB0EB0E0061EB91014FEABA
:100C4000101E4EEA017E10EB0E0041EB11114FEA2F
:100C5000102E4EEA016E10EB0E0041EB11214FEA0F
:100C6000104E4EEA014E10EB0E0041EB11414018C0
:100C700041F100014FEAD00040EA41704FEAD10152
:100C800010EB80054FEA810444EA907444EB0104C0
:100C90006D1944EB0404521BA3414FF0000348BFFD
:100CA0000A3200D530BD401C41F1000130BD704713
:100CB0002DE9FF4F0C461E464FF0FF378BB0D2E9AF
:100CC0000001DDF860800A908A46C1F30A5505B933
:100CD0003D46002108464FF00000BAF1000F00F435
:100CE000400005DA00EB80004FF4400101EA5000BB
:100CF0004FEA9059B9F1010F00DDB9460A9850EA60
:100D00004A000ED044F61050A5F2FF3545432F148B
:100D1000B8F1000F1ED07542291E1EDDC9F1000278
:100D20001CE0B8F1010F4FF0000001D0302103E0CA
:100D3000F24305E02154401CB042FBDB3046002268
:100D4000002121540B99C1F80880C1E900200FB09F
:100D5000BDE8F08FBD1B6D1CDEE74A4600DA694234
:100D600006A800F0F5FB06AB93E8070003AB83E8A9
:100D7000070050460A9900F0A7FC8DE80700A0F58F
:100D800000501F3800900398002D0ADD42F21F0129
:100D90004A460844002303A90390684600F010FF68
:100DA00009E0A0F500504A461F38002303A903902C
:100DB000684600F01AFF8DE807000004000C03D01D
:100DC0004FF0FF30410800E01046B8F1000F03D0AB
:100DD0000022009215461EE0751E05D4FFF722FF83
:100DE000303262556D1EF9D5B3460122084302D058
:100DF00000227F1C04E02078302801D100227F1ED1
:100E0000002A099784D01DE0112D07DAFFF70AFFA9
:100E1000303262556D1C50EA0102F5D1084302D010
:100E20000098C8B10EE00021681E05E0235C625CFA
:100E300063542254401E491C8142F7DBAB46A81B79
:100E4000401E0990002004F80B000B98099AC0F886
:100E50000880C0E9002B7AE711264FF0000857E719
:100E60002DE9F04F88460446D21D22F0070191B0CB
:100E7000D1E90001CDE90A0104F058F802460B98C7
:100E8000C00F01D02D2007E02068810701D52B205D
:100E900002E0202101EAC000032A099001D0072ABC
:100EA00005DB03464146204600F012FB0BE12078AB
:100EB000800601D5E06900E00620B8F1650F8146A3
:100EC00006D0B8F1660F18D0B8F1670F70D131E0D5
:100ED0000020B9F1110F009001DB112301E009F1AD
:100EE00001030AAA01A90CA8FFF7E2FEDDE90C70D4
:100EF000002609F10105834647E001204B4600909A
:100F00004FF000470AAA01A90CA8FFF7D1FEDDE9BE
:100F10000DB00C995D46002610B909F101000D18BD
:100F2000B9EB050003D4C0F1FF3609F10105A5EBCB
:100F300009002BE0B9F1010F01DA4FF0010900209F
:100F4000B9F1110F0090484601DD112300E003467E
:100F50000AAA01A90CA8FFF7ABFEDDE90C704D460B
:100F600000268346207800070AD4AB4500DA5D46A8
:100F700001A8012D04DD411911F8011C302907D009
:100F80004F4502DA17F1040F04DA012082460FE020
:100F90006D1EEEE7002F02DCED1B3E4403E0781CE3
:100FA000A84200DD7D1CB81B00F1010A4FF000478C
:100FB0002078000703D4AA4501DB4FF0FF3A002157
:100FC000B7F1004F0DF143088DF8431024D00220F3
:100FD0002B23002F01DA7F422D230A21021EA0F1CC
:100FE000010000DC5FB197FBF1FC97FBF1F201FB24
:100FF0001C7C17460CF1300C08F801CDEEE7A8F187
:10100000010003702188090501D5452100E0652113
:10101000A0F1010800F8011C09980FA9A1EB08072D
:10102000FF1D00B10120411901EBEA70A1693844AC
:10103000081A401EA0612078C00602D42046FFF79F
:1010400001FC099828B1D4E901219047206A401C8D
:1010500020622078C00622D52046FFF7F3FB1EE071
:10106000002E04DBB34502DD01A8805D00E03020E6
:10107000D4E901219047206A401C2062761CAAF125
:1010800001005FEA000A0AD100F01EFAC068016898
:10109000405CD4E901219047206A401C2062281E50
:1010A000A5F10105DCDC07E0D4E9012118F8010B0A
:1010B0009047206A401C2062381EA7F10107F3DC2C
:1010C0002046FFF7D5FB032011B041E62DE9F04F94
:1010D00004460D46D21D22F0070089B0D0E90097E2
:1010E0004846394603F022FF0246F80F01D02D236F
:1010F00007E02068810701D52B2302E0202101EAC7
:10110000C0038DF820300BB1012000E00020032A3D
:10111000824601D0072A04DB2946204600F0D8F990
:101120003FE12078800601D40D2500E0E569C7F392
:101130000A560D2D49DA00214FEA175B08464FF099
:101140000000002F00F4400007DA00EB80004FF4AD
:10115000400100EBD07001EA60008115012901DD3A
:101160004FF0FF3100224FEA850CBCF1180F06D377
:101170001346ACF118004FF08052C24003E04FF428
:10118000801323FA0CF30CF10C0CBCF1200F04D3E8
:10119000ACF1200C09FA0CF001E007FA0CF0002980
:1011A0004FF0004801DD18B90FE00ED140450CD3D7
:1011B00019EB02095F4121B9404502D19F4329EA59
:1011C0000209BBEB175F00D0761C2088000502D512
:1011D0007B48784402E07A487844193808AA3023DA
:1011E00002F80A30037C0AF10101002E0AF1020A1A
:1011F00053546A4602DC4FF0300101E04FF03101F8
:101200004FF001088DF8001002D0A6F2FF3603E07F
:1012100059EA470100D06B4E002D02DC2178090706
:1012200004D54FF002082E218DF80110C44600218C
:101230000BE0C7F303433F01C35C491C6D1E02F87A
:101240000830052908F1010801DA002DF1DC002140
:101250000CE000EB1973491C1B786D1E082902F87D
:1012600008304FEA091908F1010801DA002DF0DC15
:1012700021688B0602D516E0A8F10108E04505DDDE
:1012800002EB080313F8013C302BF5D0B8F1000F46
:1012900009DD02EB080313F8013C2E2B03D10907EB
:1012A00001D4A8F10108002D05DD3E2102F8081047
:1012B0006D1E08F10108407C002E02F8080008F1BC
:1012C000010804DA2D20764202F8080002E02B2003
:1012D00002F808000A214FF47A70864208F10108EA
:1012E0000BDB96FBF0F3303302F8083096FBF0F39B
:1012F00008F1010800FB136601E0642E0CDB64209A
:1013000096FBF0F3303302F8083096FBF0F308F167
:10131000010800FB136601E00A2E06DB96FBF1F0E4
:10132000303002F8080008F1010896FBF1F001FBEB
:101330001060303002F80800A16908F1010808EBDC
:10134000050202EB0A00081AA0612078C00602D448
:101350002046FFF777FA216A08AE01EB0A00206207
:1013600004E0D4E9012116F8010B9047BAF1010A13
:10137000F7D22078C00602D52046FFF763FA6E4602
:1013800009E016F8010B3E280FD0D4E9012190475F
:10139000206A401C2062B8F10108F2D22046FFF713
:1013A00067FA09B00320BDE8F08F206A2844206264
:1013B00003E0D4E90121302090476D1EEBD3F8E71C
:1013C000354C000002FCFFFF01694A1C02610878ED
:1013D000704700B58FB0CDE9013100210591054975
:1013E0007944CDE9031011466846FFF70BF90FB0B9
:1013F00000BD0000E5FFFFFF10B5436913B1AFF377
:10140000008001E0FFF7ECFA012010BD128800F126
:10141000240182840022C2840122EDE711684FF08A
:10142000FF32E9E7007B00F08000704770B5164698
:101430000C46054600F040F8036893F801010128C6
:1014400006D0FF2C0FD8185D68B101202C7070BD3C
:10145000D3F807013246214603F207130344284616
:10146000BDE8704018474FF0FF3070BD7546FFF77C
:10147000D5FBAE4605006946534620F00700854679
:1014800018B020B5FEF7BCFFBDE820404FF00006C5
:101490004FF000074FF000084FF0000B21F007015C
:1014A000AC46ACE8C009ACE8C009ACE8C009ACE89F
:1014B000C0098D467047000010B500F005F8001D0A
:1014C00010BD00BF25460000004870473C100020BA
:1014D0002DE9F0411F46044603260168072A01F45E
:1014E000006004DB08B116A505E016A503E008B10D
:1014F00015A500E015A521F010002060A069C01E10
:10150000A0610FB1401EA0612046FFF79BF94FB1CB
:10151000D4E9012138469047206A401C2062C01C53
:10152000206206E0206AFAE7D4E9012115F8010BF0
:101530009047761EF8D22046FFF79AF9BDE8F08171
:101540004E414E006E616E00494E4600696E660067
:101550002DE9F047814616468AB0354878440DC8D3
:101560008DE80D0032487844801C03AC0DC884E837
:101570000D0041F69B300844372190FBF1F290FBBF
:10158000F1F5A5F1800501FB12041B3C02D5644274
:10159000012000E00020DFF898A080460027FA44F0
:1015A000AAF1BE0A0EE0E0070AD03246684607EB11
:1015B000470101230AEB810100F017FB8DE80700CA
:1015C00064107F1C002CEED1194F7F44AE3F19E010
:1015D000E80715D007EB04100DF1180A90E80E008B
:1015E0008AE80E00C068F04201D19819089032468E
:1015F000012306A903A800F0F8FA03AB83E807006B
:101600006D10641C002DE3D14FF001033246694692
:10161000B8F1000F03A802D000F0D2FA01E000F008
:10162000E4FAC9E90001C9F808200AB0BDE8F0876A
:101630003C49000010B50446AFF300802046BDE8E9
:101640001040FEF768BE00004FF0013C50F8042B3C
:1016500051F8043B9A4221D1A2EB0C03934313EAC5
:10166000CC1317D150F8042B51F8043B9A4215D1F2
:10167000A2EB0C03934313EACC130BD150F8042BC9
:1016800051F8043B9A4209D1A2EB0C03934313EAAD
:10169000CC13DBD04FF00000704700BFD01A01BA66
:1016A000B1FA81F101F0180122FA01F0CB40C1F149
:1016B0002001DBB2C0B2C01A2CFA01F3D11A914357
:1016C00011EAC311E6D170475FEA400C08BF91F000
:1016D000000F4FEA8C234FEAC12243EA51514FEAEF
:1016E0001C5018BF00F5F0404FEA300018BF41F021
:1016F00000415FEA6C5C00F02980BCF1FF3F08BF4D
:1017000040F080407047130C06BF12044FF0100CDD
:101710004FF0000C130E04BF12020CF1080C130F53
:1017200004BF12010CF1040C930F04BF92000CF1E2
:10173000020CD30F04BF52000CF1010C11464FF004
:101740000002A0F11F00A0EB0C00704711F0004F49
:1017500008BF704731F000413FF4D5AF0B0C06BF16
:1017600009044FF0100C4FF0000C0B0E04BF0902DF
:101770000CF1080C0B0F04BF09010CF1040C8B0FCA
:1017800004BF89000CF1020CCB0F04BF49000CF11F
:10179000010CCCF12003A0EB0C0022FA03F302FAB7
:1017A0000CF241EA030100F10100704720F07F4C88
:1017B00080EA030023F07F47ACEB070303F57C537B
:1017C00000F0004003F1FF032DE980494FEA154B7B
:1017D00009B44FEA144325EA0B4E24EA03480FF2FA
:1017E000042606EB132749083E785FEA320203FB22
:1017F0000667C7F5000707FB06F64FEA54374FEABE
:10180000D64606F1020607FB066CCCF1005C4FEAF7
:101810001C472CEA074C07FB06F40CFB06F504EB0F
:1018200015464FEA961634BF00204FF000404FEAAD
:10183000D13706FB07FC4FEA1C4C0CFB0BF7D21B05
:1018400003FB0CF761EB07010CFB0EF7B0EB074055
:1018500072EB17420CFB08F734BFA2EB0742B2EB66
:10186000074261EB17414FEA0C444FEA910706FB30
:1018700007FC4FEA1C4C0CFB0BF7B0EBC74072EBBC
:10188000573203FB0CF734BFA2EBC742B2EBC7429F
:1018900061EB57310CFB0EF7B0EBC70072EB5772E0
:1018A0000CFB08F734BFA2EBC702B2EBC70261EB37
:1018B0005771039F4FEA816141EA921104EBCC0416
:1018C0004FEAD1374FEA826206FB07FC42EA9012E8
:1018D0004FEA80604FEA1C4C0CFB0BF7D21B03FB5A
:1018E0000CF761EB07010CFB0EF7B0EB074072EB56
:1018F00017420CFB08F734BFA2EB0742B2EB0742DA
:1019000061EB17414FEA8C554FEA910704EB9C2499
:1019100006FB07FC4FEA1C4C0CFB0BF7B0EBC74077
:1019200072EB573203FB0CF734BFA2EBC742B2EBAA
:10193000C74261EB57310CFB0EF7B0EBC70072EBFF
:1019400057720CFB08F734BFA2EBC702B2EBC70219
:1019500061EB577115EB4C254FEA816141EA921119
:101960004FEA82624FEAD13742EA901206FB07FC47
:1019700044F100044FEA80604FEA1C4C0CFB0BF76B
:10198000D21B03FB0CF761EB07010CFB0EF7B0EB6E
:10199000074072EB17420CFB08F734BFA2EB07427B
:1019A000B2EB074261EB174115EB1C154FEA813191
:1019B00041EA92414FEA823242EA90424FEA803055
:1019C0004FEA0C7644F1000448EA03434EEA0B4820
:1019D0004FF0000EB2EB080C71EB030724BF624618
:1019E00039464EEB0E0E4FF0000B001852414941A4
:1019F0004BEB0B0BB2EB080C71EB03077BF1000B0D
:101A000024BF624639464EEB0E0E4FF0000B001815
:101A1000524149414BEB0B0BB2EB080C71EB030746
:101A20007BF1000B24BF624639464EEB0E0E51EAA5
:101A3000020718BF46F0010616EB0E7655F10002BC
:101A400054F1000103D5BDE88901BDE80088BDE877
:101A50008901BDE80048B619524141EB0101A3F1EB
:101A60000103704780807F7E7D7C7B7A79787776F2
:101A700076757473727171706F6E6E6D6C6C6B6A6B
:101A80006A69686867666665646463636261616009
:101A9000605F5F5E5E5D5D5C5C5B5B5A5A59595886
:101AA00058575756565555555454535352525251F0
:101AB000515050504F4F4F4E4E4D4D4D4C4C4C4B46
:101AC0004B4B4A4A4A49494948484847474747468D
:101AD00046464545454444444443434343424242C9
:101AE00042414141002B9C4630D477002BD01CB59D
:101AF0004FEA370703B44FF010004FF01001BAF16E
:101B0000000F06D0BCF1000FDCBF40F0080040F031
:101B100008014FF000000FBCBDE810400BF1010BB5
:101B2000BBF1010F08BF5FEA170722BF12F10102E4
:101B300011F101014FF0004143F1000300F00040BA
:101B400043EA00007047F9D35708D0E746EA064653
:101B500013F1400F4FEA16461FDD13F1200FDFBFD0
:101B600016430A46002120335B42BED0C3F1200752
:101B700046EA064602FA07F74FEA164646EA07061D
:101B8000C3F1200722FA03F201FA07F721FA03F161
:101B90004FF0000342EA0702A7E746EA020646EAD8
:101BA00006464FEA164646EA0106BCBF46EA064626
:101BB000360C4FF000034FF000024FF0000194E7A5
:101BC0002DE9804C9A46934670B491E8380007C8D6
:101BD00031EA400C48BF34EA430C03D5FFF7E6FD79
:101BE000FFF780FFF0BCBDE8008C2DE9804C9A46E1
:101BF000934670B491E8380007C810F0804F08BFD2
:101C000013F0804F03D100F005F8FFF76BFFF0BC35
:101C1000BDE8008C20F07F4780EA030023F07F4C72
:101C200007EB0C03A3F57C5300F00040A3F1FE0387
:101C300092F0000F00F0B38095F0000F00F0778075
:101C40002DE901494FEA11404FEA144621EA0048C4
:101C500000FB06FC24EA064708FB06F607FB08F82B
:101C600000FB07F718EB06484CEB164C4FEA124BFB
:101C700018EB07484FEA15464CEB174022EA0B4E8B
:101C80000BFB06FC25EA06470EFB06F607FB0EFEDD
:101C90000BFB07F71EEB064E4CEB164C4FF0000605
:101CA0001EEB074E4CEB174B18EB0B0840F10000F6
:101CB00018EB0E0B58EB000840F100008F1A4FF0A4
:101CC00000013CBFC943661B14BFB5EB040C0021E7
:101CD0003CBFC943F61B4FEA17444EEA8E0E27EA73
:101CE00004454FEA1C4704FB07622CEA074C05FB3E
:101CF00007F70CFB05F604FB0CFC16EB074642EB62
:101D0000174216EB0C4642EB1C421BEB060658EB47
:101D10000202414146EA9E0601D5BDE80189B61995
:101D2000524141EB0101A3F10103BDE801894FEAF2
:101D300014454FEA114724EA054621EA074C05FB02
:101D400007F406FB07F70CFB06F105FB0CFC11EB97
:101D5000074144EB17444FEA124711EB0C4144EBA7
:101D60001C4422EA074C05FB07F206FB07F70CFBB5
:101D700006F605FB0CFC16EB074642EB174216EB8A
:101D80000C4642EB1C456A1854F1000148BF7047ED
:101D9000B619524141EB0101A3F10103704795F0DF
:101DA000000F37D04FEA11424FEA144721EA0246AA
:101DB00024EA074C02FB07F106FB07F70CFB06F4CD
:101DC00002FB0CFC14EB074441EB17414FEA1547AB
:101DD00014EB0C4441EB1C4125EA074C02FB07F5D0
:101DE00006FB07F70CFB06F602FB0CFC16EB07469E
:101DF00045EB174516EB0C4645EB1C42121951F109
:101E0000000148BF7047B619524141EB0101A3F1EF
:101E1000010370474FEA14454FEA114724EA05468B
:101E200021EA074C05FB07F106FB07F70CFB06F25E
:101E30004FF0000605FB0CFC12EB074241EB17418B
:101E400012EB0C4251EB1C4148BF7047921841EB1A
:101E50000101A3F10103704710B5012211030848E5
:101E600000F068FB074C01228021204600F062FB55
:101E700020460022BDE81040402100F05BBB00007E
:101E80000004004800080048FEE700007CB5084850
:101E9000009008486D4600240190284603F01CF885
:101EA000C82003F073F8641C2D1D022CF5DB7CBDEB
:101EB0001F00100001000C00014800F00CB90000E8
:101EC000800200200D4902688A4201D20C4901E0DB
:101ED0000B492031D2B21423083AB2FBF3F2436C1F
:101EE00002F01F0223F00303194481640449803186
:101EF000C16401219140016570470000080402405F
:101F0000000802400179074A02EB81024265054A56
:101F10004432491E826501F01F0201219140C165D2
:101F200070470000FC08024030B5D0E913456560F9
:101F3000446D14B1D0E91645656090F8444004F052
:101F40001F050124AC40056C6C6004686360836805
:101F5000102B036803D099600068C26030BD9A609E
:101F60000068C16030BD704738B50C46A8B1012883
:101F700015D0022815D0032815D00CA100931346C4
:101F800022460CA0FEF7CCFA05A90498FEF7C2FA87
:101F9000BDE838400CA0FEF7C3BA0CA1EEE70DA1D6
:101FA000ECE70EA1EAE70FA1E8E70000554E4B4E23
:101FB0004F574E005B25735D205B25735D205B25CD
:101FC000733A25645D2000000A0000004445425534
:101FD00047000000494E464F000000005741524E56
:101FE000000000004552524F5200000072B6FEE75A
:101FF00010B590F8253000210122022B03D00421D6
:10200000C163012122E003681C6824F00E041C60F7
:10201000836C1C6824F480741C6003681C6824F0C2
:1020200001041C6090F84430046C03F01F0302FAB2
:1020300003F36360D0E913345C60436D33B11C6813
:1020400024F480741C60D0E916345C6080F825208C
:10205000002280F82420084610BD70B590F8252095
:10206000002401212346022A07D00422C26380F8FB
:10207000251080F82430012429E00268156825F035
:102080000E0515600268156825F001051560826C63
:10209000156825F48075156090F84420056C02F0F1
:1020A0001F0201FA02F26A60D0E913255560426D01
:1020B00032B1156825F480751560D0E91625556094
:1020C00080F8251080F82430816B01B188472046C4
:1020D00070BDC06B7047F0B4016C0C6801680D688E
:1020E00090F8442002F01F06042202FA06F323426D
:1020F00011D06B070FD50B689B0603D40B6823F038
:1021000004030B6090F8441001F01F018A40016C39
:102110004A60016B1DE0022303FA06F727424FF0E5
:10212000000C4FF0010218D0AF0716D50C68A406BA
:1021300005D40C6824F00A040C6080F8252090F87F
:10214000441001F01F018B40016C4B6080F824C0EB
:10215000C16A00291AD0F0BC08470823B3402342C3
:1021600014D02B0712D50B6823F00E030B6090F8E8
:102170004410036C01F01F0102FA01F15960C263BF
:1021800080F8252080F824C0416BE2E7F0BC70475E
:1021900070B504000CD02B4A21681420914209D25A
:1021A000294A0A44B2FBF0F08000606427480AE044
:1021B000012070BD234A52420A44B2FBF0F0800075
:1021C0006064204808382064022084F825000A68EA
:1021D00047F6F0708243D4E902031843D4E904358A
:1021E0002B431843A3691843E3691843236A184330
:1021F000104308602046FFF765FEA0680025B0F593
:10220000804F00D16560A16C20790860D4E913018A
:1022100041606068401E032808D82046FFF772FE20
:10222000606D0560D4E91601416002E06565A56551
:10223000E565E563012084F8250084F8245000203A
:1022400070BD000008040240F8FFFDBF000002401E
:1022500070B5044690F82400002501280CD0012018
:1022600084F8240094F825600020012E06D084F81C
:1022700024000225284670BD022070BD022684F885
:102280002560E0632068066826F0010606602046A7
:10229000FFF74AFE206B00282068016802D041F059
:1022A0000E0106E021F0040101602068016841F0A0
:1022B0000A010160A06C0168C90303D5016841F4FB
:1022C00080710160606D18B1016841F48071016036
:1022D0002068016841F001010160CBE72DE9F04F72
:1022E000DFF82092002301260324A9F1040B85B016
:1022F0000F2709F1040AABF1040EFAE006FA03F520
:102300002A407CD091F804C00CF0030CBCF1010F02
:1023100002D0BCF1020F26D1D0F808C0CDF800C021
:102320004FEA430C04FA0CF8CDF810C0DDF800C0F9
:102330002CEA080CCDF800C0D1F80C80DDF810C0F4
:1023400008FA0CF8DDF800C048EA0C08C0F808806C
:10235000D0F804C02CEA050C0D79C5F300159D409A
:1023600045EA0C0545600D79ED43AD070ED0C56813
:102370004FEA430804FA08FC25EA0C05D1F808C026
:102380000CFA08FC4CEA050CC0F80CC00D7905F0FD
:102390000305022D16D1DD0800EB850CCDF808C031
:1023A000DCF820805D074FEAD56C07FA0CF528EAC7
:1023B00005080D6905FA0CF5DDF808C045EA0805C1
:1023C000CCF8205005684FEA430CCDF808C004FA59
:1023D0000CFC25EA0C0591F804C00CF00308DDF8AC
:1023E00008C008FA0CF848EA0508C0F800804D68F3
:1023F00015F4403F7CD0444DD5F860C000E077E054
:102400004CF0010CC5F860C02D6E23F0030C05F0F4
:10241000010500953D4D65440295AD684FEA837C0A
:102420004FEA1C7807FA08FC25EA0C05B0F1904F3A
:1024300006D0DFF8DCC0604505D14FF0010C20E08C
:102440004FF0000C1DE0DFF8CCC0604502D14FF02A
:10245000020C16E0DFF8C0C0604502D14FF0030C5B
:102460000FE0DFF8B8C0604502D14FF0040C08E07F
:10247000DFF8ACC0604502D14FF0050C01E04FF031
:10248000060C0CFA08FC4CEA050C029DC5F808C0C5
:10249000D9F80050CC46D1F8048095435FEAC828AB
:1024A00000D51543CCF80050DAF80050D446D1F8E6
:1024B000048095435FEA882800D51543CCF8005086
:1024C000DBF80050DC46D1F8048095435FEA883899
:1024D00000D51543CCF80050DEF80050F446D1F892
:1024E000048095435FEAC83800D51543CCF8005006
:1024F0005B1C0A6832FA03F57FF400AF05B0BDE853
:10250000F08F00000804014000100240000001406C
:102510000004004800080048000C00480010004873
:1025200000140048426921EA02030A4043EA0241DA
:10253000816170470AB18161704781627047000014
:10254000014880687047000014000020024881683C
:1025500042681144816070471400002010B50024C7
:10256000032000F09BF80F2000F008F808B10124C8
:1025700001E000F047F8204610BD000030B50546E8
:102580001B4887B0816D41F010018165806D06A9FF
:1025900000F01000009001A800F02AFB00F048FBBA
:1025A0001449154AB0FBF1F11448491E026041601C
:1025B00040F2E7320021C0E90321816000F069FFA9
:1025C000040012D10D4800F0B5FF04000DD13620F3
:1025D00000F036F8102D07D200222946362000F0F0
:1025E0003DF80748056000E0012407B0204630BDF3
:1025F0000010024040420F0000100040E0020020A6
:10260000140000200D4808B5016E41F0010101667B
:10261000016E01F001010091816D41F080518165F1
:10262000806D002200F0805000900F21901E00F07D
:1026300015F8BDE8084000F0A1B800000010024005
:10264000002809DB00F01F020121914040098000B1
:1026500000F1E020C0F8001170470000F0B40E4B0C
:102660001B680C46C3F30223C3F10705042D00D9F0
:102670000425191D072901D2002300E0DB1E0126D5
:1026800006FA05F1491E214099409E40761E1640EB
:102690003143F0BC02F062BC0CED00E0064900F0F2
:1026A000070208684FF6FF03184040EA0220034A79
:1026B00010430860704700000CED00E00000FA05D0
:1026C0002B492C4B0A6832214A432B4940B1B0F5C3
:1026D000007F086829D020F4C06040F480602CE0BE
:1026E0000868C0F34120022804D051F8800F20F47C
:1026F000807022E0D1F8800020F48070C1F8800062
:10270000086820F4C06040F400700860B2FBF3F089
:10271000401C00E0401E4A69520501D50028F9D14D
:10272000486940050AD503207047C0F341200228BC
:1027300006D051F8800F40F4807008600020704788
:10274000D1F8800040F48070C1F88000086820F45F
:10275000C06040F400700860B2FBF3F0401C00E081
:10276000401E4A695205DBD50028F9D1D8E70000A0
:102770002000002040420F000070004002488168A5
:1027800041F4804181607047007000402DE9F843BA
:102790000446006800269D4D00035ED5A86D002705
:1027A000C00008D4A86D40F08050A865A86D01272E
:1027B00000F080500090DFF85892D9F8001041F4F2
:1027C0008071C9F80010FFF7BBFE804606E000BF2D
:1027D000FFF7B6FEA0EB080002282BD8D9F80000BE
:1027E000C005F5D5D5F8900010F4407014D0216CD8
:1027F000814211D0D5F89000D5F8901020F44070A7
:1028000041F48031C5F89010D5F8901021F4803152
:10281000C5F89010C5F89000C00711D0FFF790FEE2
:10282000804641F2883907E0FFF78AFEA0EB0801F5
:10283000494501D903260BE0D5F890008007F3D570
:10284000D5F89000216C20F440700843C5F8900042
:102850001FB1A86D20F08050A8652078C00707D070
:10286000D5F88800616820F003000843C5F88800A7
:102870002078800707D5D5F88800A16820F00C00E3
:102880000843C5F888002078400707D5D5F88800A8
:10289000E16820F030000843C5F888002078000780
:1028A00007D5D5F88800216920F0C0000843C5F895
:1028B00088002078800607D5D5F88800616920F463
:1028C00040600843C5F888002078400607D5D5F851
:1028D0008800A16920F440500843C5F8880020789A
:1028E000000607D5D5F88800E16920F44040084388
:1028F000C5F888002088C00507D5D5F88800216A6A
:1029000020F440300843C5F888002088800507D5AA
:10291000D5F88800616A20F440200843C5F8880093
:10292000208840050FD5D5F88800A16A20F4401012
:102930000843C5F88800A06AB0F5801F03D1E86895
:1029400040F48010E860208800050FD5D5F8880095
:10295000E16A20F440000843C5F88800E06AB0F559
:10296000800F03D1E86840F48010E8602088C0043C
:102970000FD5D5F88800216B20F040700843C5F8CA
:102980008800206BB0F1807F03D1E86840F48010AC
:10299000E86020884FF0006180040ED5D5F88800EB
:1029A000626B20F040601043C5F88800606B88427D
:1029B00003D1E86840F48010E860208840040ED518
:1029C000D5F88800A26B20F040601043C5F888005D
:1029D000A06B884203D1E86840F48010E86020884A
:1029E00000040FD5D5F88800E16B20F04050084373
:1029F000C5F88800E06BB0F1805F03D1E86840F46F
:102A00008030E8603046BDE8F883000000100240E6
:102A1000007000402DE9F0470E4605004FF000071A
:102A200025D0DFF8AC81D8F8000000F00F00B042EC
:102A30000CD2D8F8001021F00F013143C8F8001073
:102A4000D8F8000000F00F00B04210D12968614CA6
:102A5000C80741F2883A5AD06868DFF87C910328A9
:102A600008D0022820682DD0400500282CDB01204A
:102A7000BDE8F08720688001F9D5E06800F0030226
:102A8000E068C0F30310401C032A19D0534A00BF6A
:102A9000B2FBF0F0E268C2F306225043E268C2F3F0
:102AA0004162521C5200B0FBF2F0484517D9A068B1
:102AB00010F0F00F0CD0880711D5A86840B10EE0D7
:102AC000474AE5E78003D0E700F0D6F8484506D945
:102AD000A06820F0F00040F08000A0608027A0688F
:102AE000696820F003000843A060FFF729FD8146D4
:102AF00006E000BFFFF724FDA0EB090151453AD8DD
:102B0000A068696800F00C00B0EB810FF2D1286872
:102B1000810714D5400703D5A06840F4E060A060A9
:102B20002878000705D5A06820F4605040F4E060E4
:102B3000A060A068A96820F0F000084304E0802F9E
:102B400003D1A06820F0F000A060D8F80010404643
:102B500001F00F01B14216D9016821F00F01314394
:102B60000160FFF7EDFC074607E000BFFFF7E8FC58
:102B7000C11B514501D903207AE7D8F8000000F0C5
:102B80000F00B042F2D12878400705D5A068E96867
:102B900020F4E0600843A0602878000706D5A0680C
:102BA000296920F4605040EAC100A06000F064F898
:102BB000A1680C4AC1F30311515C01F01F01C84028
:102BC0000949086009480068BDE8F047FFF7D6BC2E
:102BD000002002400010024000B4C4040024F400AD
:102BE00000366E018C5B00082000002014000020DD
:102BF0000F2202600C4A936803F00303436093685A
:102C000003F0F0038360936803F4E063C3609268A9
:102C10004FF4E06303EAD20202610448006800F066
:102C20000F000860704700000010024000200240C2
:102C30000548064900688968054AC1F30221515CCC
:102C400001F01F01C8407047200000200010024022
:102C50009C5B00080548064900688968054AC1F37D
:102C6000C221515C01F01F01C840704720000020C4
:102C7000001002409C5B0008184910B58868C0F33A
:102C800081021748012A0BD08A68164BC2F38102D1
:102C9000022A06D08A68C2F38102032A03D00020E8
:102CA00010BD184610BDCA6802F00304CA68C2F31A
:102CB0000312521C032C02D0B0FBF2F001E0B3FB74
:102CC000F2F0CA68C968C2F306225043C1F34161F9
:102CD000491C4900B0FBF1F010BD0000001002409B
:102CE0000024F40000366E012DE9F84304007AD088
:102CF0002078F84DC00747D0A868E96800F00C00BC
:102D000001F003010C2802D0082817D001E00329A4
:102D100014D06068B0F5803F17D0B0F5A02F2868B8
:102D200017D020F480302860286820F480202860A4
:102D30006068E0B1FFF704FC064614E028688003F1
:102D400022D560680028D2D01EE0286840F4803088
:102D5000EDE740F480202860F7E700BFFFF7F0FBC5
:102D6000801B642870D828688003F7D50CE0FFF733
:102D7000E7FB064605E000BFFFF7E2FB801B642887
:102D8000F0D828688003F7D4207880074CD5A8684D
:102D9000E96800F00C0001F003010C2802D00428BF
:102DA0000DD001E002290AD0E068002828682BD065
:102DB00040F480702860FFF7C3FB064619E02868DE
:102DC000400502D5E068002891D06868217C20F099
:102DD000FE4040EA01606860BF480068FFF7CEFB34
:102DE000002800D120E072E1FFF7AAFB801B022837
:102DF000B8D828684005F7D56868217C20F0FE40E7
:102E000040EA016068600FE020F480702860FFF7FE
:102E100097FB064605E000BFFFF792FB801B0228E8
:102E2000A0D828684005F7D42078000729D5606924
:102E30000028D5F8940013D040F00100C5F89400A4
:102E4000FFF77EFB064606E090E000BFFFF778FB49
:102E5000801B022886D8D5F894008007F6D510E0AC
:102E600020F00100C5F89400FFF76AFB064604E075
:102E7000FFF766FB801B022878D8D5F894008007FE
:102E8000F6D42078400761D5A86D0026C00008D48C
:102E9000A86D40F08050A865A86D012600F0805014
:102EA00000908E480168C90511D40168804641F43C
:102EB00080710160FFF744FB074604E0FFF740FB29
:102EC000C01B022852D8D8F80000C005F6D5A0686B
:102ED000012815D00528D5F8900016D020F0010063
:102EE000C5F89000D5F8900020F00400C5F89000D7
:102EF000A06841F28838B8B1FFF722FB07460EE020
:102F0000D5F8900040F00100F0E740F00400C5F86B
:102F10009000F5E7FFF714FBC11B414526D8D5F813
:102F200090008007F6D50CE0FFF70AFB074604E0A7
:102F3000FFF706FBC11B414518D8D5F89000800764
:102F4000F6D41EB1A86D20F08050A86520788006C8
:102F500029D5A0690028D5F8980013D040F00100C9
:102F6000C5F89800FFF7ECFA064606E075E000BFEA
:102F7000FFF7E6FA801B02286FD8D5F89800800783
:102F8000F6D510E020F00100C5F89800FFF7D8FA58
:102F9000064604E0FFF7D4FA801B02285DD8D5F876
:102FA00098008007F6D4E069F0B3A968C1F3810105
:102FB00003295DD00228286820F08070286003D0A3
:102FC000FFF7BEFA04464BE0FFF7BAFA064604E004
:102FD000FFF7B6FA801B02283FD828688001F7D493
:102FE000F4E908016FF00F0202EB01110843218A96
:102FF0005204490802EB4151A26841EA0221084308
:10300000217D4FF07E42490802EB41610843217B5C
:1030100040EAC160E968324A11400843E860286824
:1030200040F08070286000E05EE0E86840F080706A
:10303000E860FFF785FA044605E000BFFFF780FA75
:10304000001B022809D828688001F7D54CE000BF92
:10305000FFF776FA001B022802D90320BDE8F883A7
:1030600028688001F4D4E8681E490840E8603BE025
:103070000128F3D0E868226A00F00301914226D1CA
:10308000616A00F0F0020901103991421FD1A26A71
:1030900000F4FE41B1EB022F19D194F82C2000F07E
:1030A0007841B1EBC26F12D1218E00F4C002490801
:1030B0004905A1F50011914209D194F8341000F0AE
:1030C000C06049084906A1F1007181420CD001207D
:1030D000C4E700000010024014000020007000400F
:1030E0000C809F01FCFFEEFE0020B7E770B50400E6
:1030F00009D0606A002540B125616561A56294F838
:103100005D0040B10CE0012070BD6068B0F5827FC9
:10311000F4D0E561F2E784F85C50204600F05CF8FA
:10312000022084F85D002068016821F04001016000
:10313000E1684FF4E062914201D9002001E04FF4D0
:103140008050B1F5706F02D0914200D0A562A18885
:10315000228901F4827102F404421143227C02F0BC
:1031600002021143227D02F001021143228B02F47C
:1031700000721143227F02F03802114394F820209C
:1031800002F080021143228D02F4005211432268A2
:103190001160A169042202EA114194F8242000F48C
:1031A000805002F01002114394F8342002F008021B
:1031B0001143A28902F47062114301432068416007
:1031C0002068C16921F40061C1612566012084F88D
:1031D0005D00002070BD0000F0B587B004461421EA
:1031E0006846FDF705FB1949206888422BD118482D
:1031F000816D41F480418165816D01F480410591CB
:10320000C16C41F00201C164C06C022500F00200F3
:1032100005904FF40050CDE9000502AA01200024DA
:10322000052682E851000B4F69463846FFF756F8ED
:103230004FF440400090CDE90154CDE90346694682
:103240003846FFF74BF807B0F0BD000000380040EB
:1032500000100240000400482DE9F84F9846164639
:103260008A460446FFF76CF9814694F85D00012810
:1032700020D1BAF1000F6FD0002E6DD094F85C0011
:10328000012817D0012784F85C70032084F85D00C2
:1032900000252566C4F838A0A687E6872564A4F82B
:1032A0004450A4F846502565E564A068B0F5004F89
:1032B00003D00CE00220BDE8F88F2068016821F0FF
:1032C000400101602068016841F48041016020688C
:1032D0000168490603D4016841F040010160E068DB
:1032E000B0F5E06F606826D908B1012E1FD1A06B40
:1032F00021680088C86006E020688168890709D5D0
:10330000A16B0988C160A06B801CA063E08F401E88
:10331000E0870CE0FFF714F9A0EB0901414503D366
:10332000B8F1FF3F03D04BE0B8F1000F48D0E08F79
:103330000028E1D139E008B1012E33D1E08F012816
:10334000A06B03D921680088C86010E0216800786C
:10335000087314E0E08725E043E02068816889076E
:1033600013D5E18F0129A16B07D90988C160A06B32
:10337000801CA063E08F801EECE709780173A06BCE
:10338000401CA063E08F401EE4E7FFF7D9F8A0EBF4
:103390000901414503D3B8F1FF3F03D010E0B8F174
:1033A000000F0DD0E08F0028D7D14A464146204675
:1033B00000F0E1FF08B120202066A06830B109E0EC
:1033C00084F85D7084F85C50032074E72068C1685D
:1033D0008068009084F85D7004F85C5F6068002885
:1033E000F3D0012067E77047704770477047704718
:1033F00070470000F0B590F83C20012A3AD0012532
:1034000080F83C50022280F83D2003685A689C688E
:10341000194E1A4FB34201D0BB4204D122F4700CB2
:103420004A6842EA0C02DFF858C002EA0C02D1F8FE
:1034300000C04CEA020CC3F804C00268B2420DD0CE
:10344000B2F1804F0AD00F4B9A4207D00E4B9A42EE
:1034500004D0BA4202D00D4B9A4204D1896824F0BC
:1034600080031943916080F83D50002180F83C10A2
:103470000846F0BD0220F0BD002C014000340140A0
:103480008FFFFFFD000400400008004000400140A5
:10349000704710B5040003D094F83D0010B107E068
:1034A000012010BD002084F83C00204600F022F8E6
:1034B000022084F83D00211D206801F0C9F8012098
:1034C00084F8480084F83E0084F83F0084F8400007
:1034D00084F8410084F8420084F8430084F84400F2
:1034E00084F8450084F8460084F8470084F83D00DD
:1034F000002010BD08B50C4A01680C48914207D164
:10350000816D41F002018165806D00F0020009E0EB
:10351000074A914207D1816D41F004018165806DB8
:1035200000F00400009008BD0004004000100240BC
:103530000008004090F83D10012901D0012070479B
:10354000022180F83D100168CA6842F00102CA6099
:103550000068104988420ED0B0F1804F0BD00E4960
:10356000884208D00D49884205D00D49884202D0D2
:103570000C49884207D181680B4A1140062906D0C0
:10358000B1F5803F03D0016841F0010101600020E6
:1035900070470000002C014000040040000800407B
:1035A00000340140004001400700010070B50446AE
:1035B00090F83C000025012814D0012684F83C60D6
:1035C000022084F83D0022689068364B184020F4B1
:1035D0007F409060086870282ED010DC10F00F0F2C
:1035E00003D021E04FF0020070BD4FEA2012072AFD
:1035F0001AD2DFE802F0525252524A3840002A4BA7
:10360000C21A984249D009DCB0F5805F0DD0B0F500
:10361000005F1CD0B0F1101F06D13EE0102A3CD054
:10362000202A3AD0502A38D0012584F83D60002065
:1036300084F83C00284670BDCB68D1E901212068A0
:1036400001F064F82068816841F0770109E0CB68F7
:10365000D1E90121206801F059F82068816841F41E
:1036600080418160E1E7CA684968206801F062F83A
:103670005021206806E0CA684968206801F06BF8AC
:103680006021206801F04CF8CFE7CA6849682068DB
:1036900001F050F840212068F4E722680146104606
:1036A000F0E7000088FFCEFF2000100070472DE9F2
:1036B000F04104460068C66805694FF00007A90795
:1036C00013D5B10711D5F91E0161012020772068BB
:1036D00080698007204602D0FFF7E8FF04E000F091
:1036E000B7F8204600F0B5F82777680716D57007B9
:1036F00014D521686FF0040008610220207720684B
:10370000806910F4407F204602D0FFF7CFFF04E02D
:1037100000F09EF8204600F09CF82777280715D582
:10372000300713D521686FF0080008610420207766
:103730002068C0698007204602D0FFF7B7FF04E089
:1037400000F086F8204600F084F82777E80616D5C2
:10375000F00614D521686FF010000861082020776A
:103760002068C06910F4407F204602D0FFF79EFF1A
:1037700004E000F06DF8204600F06BF82777E807CA
:1037800008D0F00706D021686FF0010008612046DC
:1037900000F060F8280601D4A80408D5300606D544
:1037A00021686FF4025008612046FFF71DFEE8050E
:1037B00008D5300606D521686FF480700861204670
:1037C000FFF711FE680608D5700606D521686FF070
:1037D00040000861204600F047F8A80608D5B0066A
:1037E00006D521686FF0200008612046FFF7FDFD37
:1037F000E80208D5F00206D521686FF48010086150
:103800002046FFF7F4FDA80208D5B00206D52168CE
:103810006FF4001008612046FFF7E8FD680208D544
:10382000700206D521686FF4800008612046FFF71A
:10383000DFFD28020AD5300208D521686FF40000A8
:1038400008612046BDE8F041FFF722BEBDE8F081E7
:103850007047704700680349884201D1FEF776BE81
:103860007047000000100040704790F88410012954
:1038700018D0012180F884102421C0F88810016834
:103880000A680B6823F001030B6022F0005100224C
:103890004266036819602021C0F8881080F88420EF
:1038A00010467047022070477047704770B5044655
:1038B00090F8840001281DD0012084F88400242081
:1038C000C4F8880020680568026822F001020260DE
:1038D0002068826822F060620A438260204600F01D
:1038E0004DFF206805602020C4F88800002084F87F
:1038F000840070BD022070BD70B5044690F884004D
:1039000001281DD0012084F884002420C4F88800F8
:1039100020680568026822F001020260206882685F
:1039200022F060420A438260204600F027FF2068B0
:1039300005602020C4F88800002084F8840070BD51
:10394000022070BD7047704770B50446D0F88800FB
:10395000D4F88C60216889684FF01005090618D5E5
:10396000212816D12068083050E8001F21F080017E
:1039700040E80012002AF5D1E06F38B1FEF738FBBD
:1039800020B1E06FFEF7A5FB202823D0204601F0F0
:103990007FF82068806840061AD5222E18D120684A
:1039A000083050E8001F21F0400140E80012002AD2
:1039B000F5D1D4F8800040B1FEF71AFB28B1D4F855
:1039C0008000FEF786FB202804D0204601F036F860
:1039D000002070BDC4F89050032070BD70470000F7
:1039E0002DE9F04103680446D86919689A6840F6E1
:1039F0000F0528424FF000054FF002060AD1870656
:103A00007ED501F0200702F0805C57EA0C0777D0E2
:103A1000616F42E1B64FDFF8DCC2174001EA0C0CDF
:103A200057EA0C0C6CD05FEAC07C0CD05FEAC15C3A
:103A300009D54FF0010CC3F820C0D4F8903043F002
:103A40000103C4F89030830709D5D30707D0236852
:103A50001E62D4F8903043F00403C4F8903043075A
:103A60000AD5D30708D0266804233362D4F89030EF
:103A700043F00203C4F8903003070CD501F0200393
:103A80003B4308D0266808233362D4F8903043F0D3
:103A90000803C4F8903003050BD54B0109D52668FF
:103AA0004FF400633362D4F8903043F02003C4F83D
:103AB0009030D4F89030002B3DD0800609D501F02D
:103AC000200002F08051084303D0616F09B1204605
:103AD0008847D4F8900021688968490602D410F01C
:103AE000280F2AD0204600F0A9FF206880684006F1
:103AF0001ED52068083050E8001F21F0400100E08A
:103B000021E040E80012002AF3D1D4F8800078B117
:103B100079498163D4F88000FEF79FFA00280AD023
:103B2000D4F88000816B00E02046BDE8F0410847F2
:103B30002046FFF753FFBDE8F0812046FFF74EFF18
:103B4000C4F89050F7E7D4F86CC02027BCF1010FFF
:103B50007ED15FEAC06C7BD55FEAC16C78D510205E
:103B6000186220688068400651D5D4F880100A6831
:103B700050680004000C3ED0B4F85C3083423AD95F
:103B8000A4F85E000868006880062CD4216851E81B
:103B9000000F20F4807041E80002002AF6D120686E
:103BA000083050E8001F21F0010140E80012002A0F
:103BB000F5D12068083050E8001F21F0400140E8AE
:103BC0000012002AF5D1C4F88C70E566216851E82E
:103BD000000F20F0100041E80002002AF6D1D4F8CE
:103BE0008000FEF705FA2667B4F85C00B4F85E10B2
:103BF000401A81B207E0B4F85C1081429BD1106892
:103C0000800698D526672046FFF74EFE93E7B4F866
:103C10005C00B4F85E10401A81B2B4F85E0000286F
:103C200089D0002987D0226852E8000F20F49070D4
:103C300042E80003002BF6D12D4BDB43206808300F
:103C400050E8002F1A4040E8002CBCF1000F00E0C3
:103C50000EE0F3D1C4F88C70E5666567206850E823
:103C6000002F22F0100240E80023002BF6D1C9E714
:103C7000C60209D5560207D54FF4801018622046B7
:103C8000BDE8F041FFF75FBE03060AD501F08003EF
:103C900002F40002134304D0A16F00297FF444AF63
:103CA00049E7420611D54A060FD52046016851E87A
:103CB000002F22F0400241E80023002BF6D1C0F88B
:103CC0008870856700F0D6F835E7020206D54A000D
:103CD00004D52046BDE8F041FFF734BEC00195D5BC
:103CE000002993DA2046BDE8F041FFF7DEBD000071
:103CF00001000010200100043549000810B504003F
:103D000003D0D4F8880010B107E0012010BD0020D6
:103D100084F88400204600F027F82420C4F88800A6
:103D20002068016821F001010160A06A10B12046FD
:103D300000F046FD204600F0C3FE0128E6D02068D2
:103D4000416821F4904141602068816821F02A0196
:103D500081602068016841F0010101602046BDE8F2
:103D6000104000F091BD000070B598B006461421D7
:103D700011A8FCF73DFD44216846FCF739FD2549B3
:103D80003068884244D101200025CDE9000568460D
:103D9000FEF7FCFC08B1FEF729F91F49086E40F454
:103DA00080400866086E00F480401690C86C40F0B1
:103DB0000400C864C86C11A900F0040016903020FB
:103DC00011900220CDE912050720CDE914501348C7
:103DD000FEF784FA134C124820601820C4E901054C
:103DE0008020C4E903506561A561E5612046256234
:103DF000FEF7CEF908B1FEF7F9F8C6F880400022C8
:103E000005212520A662FEF729FC2520FEF718FCD7
:103E100018B070BD00380140001002400008004892
:103E2000080002408002002030B4D0F88C30202BF3
:103E300002D0022030BC7047A9B1A2B10023C366F2
:103E40000A4C0368A3420BD05B681B0208D50468C8
:103E500054E8003F43F0806344E80035002DF6D17C
:103E600030BC00F067BF0120E4E7000000800040A4
:103E70007047704770470000F8B50C4605460729A3
:103E800003D224A00F2300903EE02AA00090142328
:103E9000304A31A10020FEF767F82E79A01C864237
:103EA00003D038A01C2300902EE03EA000902123D8
:103EB000284A29A10020FEF757F82819A41E30F837
:103EC000020CA1B247BA284600F03EFAB84203D02D
:103ED0003AA02723009017E03DA000902B231D4A15
:103EE0001DA10020FEF740F86878012805D00228BF
:103EF00007D03CA05023009006E03CA03C2300905B
:103F000002E03AA04D230090124A13A10020FEF7D0
:103F10002BF8F8BD546865206672616D65206C658C
:103F20006E67746820697320696E636F727265636F
:103F3000742E0000546865206672616D65206C65A2
:103F40006E67746820697320636F72726563742E84
:103F500000000000A45D00082E2E5C5573657241C0
:103F600070705C436F6D6D496E74657266616365F8
:103F70005C636F6D6D696E746572666163652E63F7
:103F8000000000005468652064617461206C656EF7
:103F900067746820697320696E636F7272656374F9
:103FA0002E00000044617461206C656E67746820A7
:103FB000636F72726563742E0000000043524320E9
:103FC000636865636B206572726F722E000000007B
:103FD00043524320636865636B20636F727265634D
:103FE000742E00004552524F522E0000434F4D4D4B
:103FF000414E4420312E0000FEE700000D4808B578
:10400000816C41F004018164816C01F00401009134
:10401000816C41F001018164806C002200F001009C
:10402000009005210B20FEF719FBBDE808400B208E
:10403000FEF706BB0010024010B590B014221149E3
:104040006846FCF7A3FB0021684601F005F80E4C1A
:104050000C4914222060143105A8FCF797FB0021BD
:1040600005A800F0F9FF07496060142228310AA86A
:10407000FCF78CFB00210AA800F0EEFFA06010B056
:1040800010BD0000285B0008000000202DE9F0476B
:1040900086B014216846FCF7ABFB3D48C16C41F08B
:1040A0002001C164C16C01F020010591C16C41F097
:1040B0000401C164C16C01F004010591C16C41F0BF
:1040C0000201C164C16C01F002010591C16C41F0B3
:1040D0000101C164C06CDFF8BC8000F001000590F4
:1040E000002240F201414046FEF724FA0122160365
:1040F00031464046FEF71EFADFF89C900022402130
:104100004846FEF717FA012280214846FEF712FAC8
:104110004FF4C0674FF0904A002239465046FEF7F0
:1041200009FA01240320CDE9024000946946019474
:104130004046FEF7D3F8A00200258DE8310069461D
:1041400040460395FEF7CAF8CDE900640226CDE9A2
:10415000024669464046FEF7C1F840208DE831002E
:10416000694648460395FEF7B9F880208DE871004E
:1041700069464846FEF7B2F80097CDE90145694621
:1041800050460395FEF7AAF806B0BDE8F087000098
:10419000001002400004004800080048124810B512
:1041A000104901604FF48271416000214FF4E062D8
:1041B000C0E902120122C0E90412520282611022F7
:1041C000C0E9072107224162C0E90A120163416385
:1041D000FEF78CFF002803D0BDE81040FDF706BFB6
:1041E00010BD0000003800408C00002010B588B0E1
:1041F00000241748009401940294039404940594B5
:10420000124906940160A921C0E901144FF6FF711B
:10421000C0E903148461FFF73CF908B1FDF7E6FE3D
:104220004FF48050009069460948FFF7BFF908B184
:10423000FDF7DCFE049404A905480694FFF7DAF8BC
:10424000002801D0FDF7D2FE08B010BD00040040E8
:10425000F000002010B588B00024174800940194A5
:104260000294039404940594124906940160A921D0
:10427000C0E901144FF6FF71C0E903148461FFF730
:1042800008F908B1FDF7B2FE4FF48050009069467E
:104290000948FFF78BF908B1FDF7A8FE049404A9BB
:1042A00005480694FFF7A6F8002801D0FDF79EFE0A
:1042B00008B010BD000800403C01002010B51F4CA4
:1042C0001D480C2120604FF4E13060600020A060A8
:1042D000E060C4E90401A061E06120626062A06264
:1042E0002046FFF70BFD08B1FDF780FE00211348C3
:1042F000FFF702FB08B1FDF779FE00210F48FFF739
:10430000D5FA08B1FDF772FE0C48FFF7AEFA08B116
:10431000FDF76CFE2068016841F01001016007495B
:10432000642264390548FFF77FFD0022BDE8104094
:1043300001210348FEF7FEB800380140EC010020DF
:1043400000040048FEE7000070B5094DFF231A463F
:1043500005F5807606E000BF10F8014B54402A5D59
:104360005A40335D491E89B2F6D242EA032070BD3D
:10437000A45B0008FEE7F8B515460E460B46009212
:10438000044600224FF4C05100F01AF888B93346B1
:10439000002280212046009500F082F848B933467B
:1043A00000224FF4C0612046009500F009F8002873
:1043B00004D0206E40F0200020660320F8BD0000ED
:1043C0002DE9FE4F4FF0000A984617460E46044668
:1043D0000C9D8DF804A0FEF7B3F8411BA8EB010576
:1043E000FEF7AEF8814620684FF4C06B0C300290A7
:1043F0002A480068C0EBC00000EB8000000D684355
:10440000009043E05E4506D12FB9029800788DF800
:1044100004009DF80400B8F1FF3F37D0FEF790F894
:10442000A0EB0900A84203D215B1009858B32BE0C5
:104430002068416821F0E00141606068B0F5827F4A
:104440000BD1A068B0F5004F02D0B0F5806F04D159
:104450002068016821F040010160A06AB0F5005FAA
:1044600009D12068016821F40051016020680168C9
:1044700041F400510160012084F85D0084F85CA0E3
:104480000320BDE8FE8F0025401E00902068806854
:104490003040B842B6D10020F3E7000020000020F1
:1044A0002DE9F8431E46914688460446089DFEF7CE
:1044B00047F8401B351AFEF743F8074625480068C1
:1044C000C0F3CB30684338E0701C37D0FEF738F8C3
:1044D000C01BA84203D215B1009860B32CE020683D
:1044E000416821F0E00141606068B0F5827F0BD146
:1044F000A068B0F5004F02D0B0F5806F04D12068FD
:10450000016821F040010160A06AB0F5005F09D1A7
:104510002068016821F4005101602068016841F4BD
:1045200000510160012084F85D00002084F85C00E7
:104530000320BDE8F8830025401E009020688168B4
:1045400038EA010004D000214945BDD10020F0E740
:104550000121F9E7200000204FF400744FF090454E
:104560004FF4FA7621462846FDF7DCFF304600F08E
:1045700066FDF7E7064E4FF47A744FF480652046E7
:1045800000F05DFD012229463046FDF7D3FFF6E736
:10459000000400484FF4FA74204600F050FDFBE799
:1045A00010B5502080F31188BFF34F8FBFF36F8F8A
:1045B00001F0B4F918B104494FF0805008600020B0
:1045C00080F3118810BD000004ED00E010B594B038
:1045D00038216846FCF70CF914210EA8FCF708F9FD
:1045E0000020FEF76DF8012000900004032406214E
:1045F0000190CDE9084102205521CDE90A1007902C
:104600000C900D906846FEF76FFB08B172B6FEE79E
:104610000F20CDE90E04002010901190129004217B
:104620000EA8FEF7F7F9002801D072B6FEE714B025
:1046300010BD00000248016841F47001016070473C
:1046400088ED00E00148FFF732B80000E0020020EA
:104650002DE9F0430268264B264D274E274C4FF09C
:104660008049984207D0484505D0A84203D0B042BF
:1046700001D0A04203D122F070074A683A43204F8C
:10468000DFF880C0DFF8808098420DD048450BD01D
:10469000A84209D0B04207D0A04205D0B84203D00A
:1046A000604501D0404503D122F44075CA682A43D1
:1046B0004D6922F080022A4302608A68C2620A6859
:1046C0008262984207D0A04205D0B84203D060452C
:1046D00001D0404501D109690163012141610169AE
:1046E000C90703D0016921F001010161BDE8F08330
:1046F000002C01400004004000080040003401404C
:1047000000400140004401400048014010B5846869
:1047100042EA032224F47F440A432243826010BD0C
:104720008268034B1A400A4342F0070181607047D8
:104730008FFFCFFF10B5036A046A24F001040462FE
:10474000846924F0F00444EA021423F00A020A43C4
:104750008461026210BD10B5036A046A24F010047B
:104760000462846923F0A00324F4704444EA023212
:1047700043EA01118261016210BD000030B5416E53
:10478000B9B1026891689268C1F342610B4B520F54
:104790009C5CE50003F10804A25CB5FBF2F2A0F812
:1047A0006A205A5C615CD200B2FBF1F1A0F868109B
:1047B00030BD0121A0F86A10F8E700007C5B00081A
:1047C00090F82810090706D501684A68836B22F41F
:1047D00000421A434A6090F82810C90706D00168C1
:1047E0004A68C36A22F400321A434A6090F82810DB
:1047F000890706D501684A68036B22F480321A43A0
:104800004A6090F82810490706D501684A68436B4A
:1048100022F480221A434A6090F82810C90606D56F
:1048200001688A68C36B22F480521A438A6090F848
:104830002810890606D501688A68036C22F40052A4
:104840001A438A6090F82810490611D501684A6811
:10485000436C22F480121A434A60416CB1F5801F08
:1048600006D101684A68836C22F4C0021A434A6088
:1048700090F82810090606D501684A68C06C22F431
:10488000002202434A6070472DE9F843002604469F
:10489000C0F89060FDF754FE8046206800684FF035
:1048A000200500076FF07E4713D5434600222904F8
:1048B0002046009700F092FA58B1216851E8000FA5
:1048C00020F0800041E80002002AF6D1C4F88850A8
:1048D00021E020680068400722D5434600224FF4BB
:1048E00080012046009700F079FAC8B1216851E8AC
:1048F000000F20F4907041E80002002AF6D12068F1
:10490000083050E8001F21F0010140E80012002AA1
:10491000F5D1C4F88C5084F884600320BDE8F88396
:10492000C4F88850C4F88C5044F86C6F66602676E2
:104930000020F3E710B5806A0021A0F85E10FFF7B1
:104940004DF810BD70B5846AD4F88800D4F88C5046
:10495000216889684FF00006090606D5212804D190
:10496000A4F85660204600F093F82068806840065E
:1049700006D5222D04D1A4F85E60204600F05EF832
:10498000D4F8900040F01000C4F890002046FFF7E3
:1049900025F870BD10B50146806A096809684FF0B6
:1049A000000289062DD4A0F85E20036853E8001F9A
:1049B00021F4807143E80014002CF6D1016808311D
:1049C00051E8003F23F0010341E80034002CF5D109
:1049D0000168083151E8003F23F0400341E800340A
:1049E000002CF5D12021C0F88C10C16E012908D10E
:1049F000016851E8003F23F0100341E80034002C27
:104A0000F6D10267C16E012902D0FFF731FA10BD5D
:104A1000B0F85C10FEF748FF10BD10B5806A0121A8
:104A20000167C16E012902D0FFF723FA10BDB0F86B
:104A30005C104908FEF738FF10BD000010B5026891
:104A400052E8001F21F4907142E80013002BF6D1C8
:104A50000E4B0268083252E8001F194042E8001469
:104A6000002CF6D1C16E012908D1016851E8002F50
:104A700022F0100241E80023002BF6D12021C0F8DB
:104A80008C100021C166416710BD0000FEFFFFEFE2
:104A9000026852E8001F21F0C00142E80013002B19
:104AA000F6D10168083151E8002F22F4000241E8F4
:104AB0000023002BF5D12021C0F88810704700009A
:104AC0002DE9F0410446016880682269E3691043DA
:104AD000626900251A431043DFF82CC20A688B4B29
:104AE0001A4002430A6020684168E26821F440519C
:104AF000114341602168A069614501D0226A1043D9
:104B00008A68834B1A4002438A602068C16A626ADD
:104B100021F00F011143C1627E4923687E488B4218
:104B20000DD1D0F8880010F0030006D0012855D030
:104B3000022842D003283FD152E001203DE07749CE
:104B40008B420BD1D0F8880010F00C0035D004282F
:104B500033D0082840D00C282ED141E070498B4238
:104B60000BD1D0F8880010F0300026D0102835D0B6
:104B7000202831D030281FD132E06A498B420BD136
:104B8000D0F8880010F0C00017D0402826D0802828
:104B900022D0C02810D123E063450DD1D0F8880081
:104BA00010F4406009D0B0F5806F17D0B0F5006FF9
:104BB00012D0B0F5406F13D010205B495B4F002638
:104BC0004FF4004263453BD160B1022813D0042862
:104BD0000BD0082872D10DE00220EEE70420ECE7AC
:104BE0000820EAE7FEF724F801E0FEF745F80100A7
:104BF00001D17CE01146606A37F810206768B1FB8C
:104C0000F2F007EB4703834270D8B0EB073F6DD853
:104C1000002308461946FBF705FC090241EA10612A
:104C200002027808101871413A460023FBF7FAFB9C
:104C30003F4AA0F54071914258D82168C86056E0BB
:104C4000E3694FF6EF7893422CD109284ED2DFE882
:104C500000F00508114D0D4D4D4D1000FDF7E8FF1A
:104C600001E0FDF7F7FF010004D140E0FEF704F892
:104C7000F9E71146606A37F81000B1FBF0F0410027
:104C8000606801EB5001B1FBF0F0A0F1100141456B
:104C90002CD84FF6F0710140C0F342000143206868
:104CA000C16024E0092821D2DFE800F005091220C4
:104CB0000E2020201100FDF7BBFF02E016E0FDF7FB
:104CC000C9FF010004D112E0FDF7D6FFF9E7114654
:104CD000606A37F81000B1FBF0F1606801EB500139
:104CE000B1FBF0F0A0F1100141450AD901250120E6
:104CF000A4F86A0024F8680F2846E6602661BDE83B
:104D0000F08180B299E7000000800040F369FFCF96
:104D1000FFF4FF1100380140001002400044004041
:104D200000480040004C00400024F400645B000890
:104D3000FFFC0F0070B58165A0F85C2000210446DF
:104D4000C0F890102220C4F88C00D4F88000F0B194
:104D50001F4BC362D4F880301E481863D4F88030EB
:104D60001D485863D4F8800013468163A56D2168FF
:104D70002A462431D4F88000FDF76AFA38B11020B1
:104D8000C4F890002020C4F88C00012070BD206978
:104D900040B1216851E8000F40F4807041E8000202
:104DA000002AF6D12068083050E8001F41F00101C8
:104DB00040E80012002AF5D12068083050E8001FB2
:104DC00041F0400140E80012002AF5D1002070BDFA
:104DD000954900081B4A0008454900082DE9F0479D
:104DE000994617460D4604464FF00008089E33E0EA
:104DF000701C31D0FDF7A4FBA0EB0900B04218D81D
:104E0000BEB120680168490726D5802D24D0402DE9
:104E100022D0C169C94309070DD40825056220467F
:104E2000FFF70CFEC4F8905084F884800120BDE8A0
:104E3000F0870320FBE7C069C04300050CD421685C
:104E40004FF4006008622046FFF7F8FD2020C4F808
:104E5000900084F88480ECE72068C06935EA00009F
:104E600004D00020B842C3D00020E0E70120F9E7D9
:104E700010B51348FEF7B4FD11480068C169C1F3CD
:104E8000001100291AD00F4A01211170102101626E
:104E90000B48FEF759FD0C4800684068C0B2C0F1ED
:104EA0006400C1B2094801700948FEF7E5FFBDE89A
:104EB0001040642206490248FEF7B6BF10BD00004C
:104EC000EC0100200D000020800200200C000020DA
:104ED00088010020FEE7000038B50068114D010C84
:104EE0008DF80010010A8DF801108DF802004FF4C2
:104EF0008054002221462846FDF71CFB142000F0B8
:104F000045F84FF0FF33032269460748FEF7A4F93E
:104F1000012221462846FDF70DFB142000F036F84B
:104F200038BD0000000400488C00002003B4019844
:104F30004100009850EAC12018BF04204A0D18BF54
:104F400040F0010040F2FF72B2EB515F08BF40F049
:104F50000200012808BF052002B070470907090EAA
:104F6000002804DB00F1E02080F80014704700F016
:104F70000F0000F1E02080F8141D704730380A2837
:104F800001D2012070470020704770470D49002270
:104F90000B685A620A68136843F0010313600968DA
:104FA0004A6A8242FCD3086A41F21112104207D1C8
:104FB000086A9200104203D1086820F001000860DE
:104FC000704700003C01002070B50B4D04460122E3
:104FD00011462846FDF7AEFA0849E0B208600748D6
:104FE0000C3801684906FCD5002201212846FDF74E
:104FF000A1FA204670BD0000000400482838014096
:10500000FDF7ACFAFFF7E2FAFFF740F8FEF7F6FF1C
:10501000FFF754F9FFF71EF9FFF7E8F8FFF7BEF8BE
:10502000FCF71AFFFCF732FFFFF706F800F00FF865
:10503000FEE70021842800D0C11C0846704710B547
:10504000002800D1012000F01BFB002010BD10B58E
:1050500000F03EFB002010BD30B583B004460D4685
:10506000B4F90800FFF7E5FF02A901910090208A3A
:105070002B4682B22168606800F01CFC012802D037
:1050800003B0002030BD029803B030BD2DE9F041DF
:1050900004460F46194EF5683068001D00F02EFAE0
:1050A00048B93068012190F82C0001FA00F031690C
:1050B00021EA00003061B4F1FF3F07D137B1306819
:1050C000BDE8F041011D0E4800F054BA2C44306890
:1050D0004460AC4206D23068011DB06BBDE8F041BF
:1050E00000F02DBA3068011D706B00F028FAB06A2C
:1050F000844200D2B462BDE8F081000024000020A8
:105100000804002070B5044600F040FA1C4DA86861
:10511000401CA860286810B1686938B10CE02C60A8
:10512000A868012808D100F0D7F805E02868E16AEE
:10513000C06A884200D82C60686A401C6862E06AD5
:1051400001212A698140114329610E4900EB800049
:1051500001EB8000211D00F00DFA00F037FA6869BC
:1051600000280CD02868E16AC06A884207D2064944
:105170004FF080500860BFF34F8FBFF36F8F70BD4B
:10518000240000202C03002004ED00E070B50D4C3D
:105190006068002815D00C4E00F0F8F9F068C5687A
:1051A000281D00F0ABF9A068401EA0606068401E9A
:1051B000606000F00BFA284600F008F860680028EC
:1051C000EAD170BD24000020F403002010B504468D
:1051D000206B00F011FA2046BDE8104000F00CBA38
:1051E0004FF44061104810F0070F06D0C01D20F0AA
:1051F00007000D49411AC1F540610C4A10600023B7
:1052000053600144083921F00701183A11604B60DE
:105210000B600B1A436001604068906050604FF073
:1052200000405061704700001C04002078000020FE
:10523000074E4FF08054074DFFF7A8FF3068012854
:10524000FAD92C60BFF34F8FBFF36F8FF4E70000E4
:105250002C03002004ED00E02DE9F0478146099E73
:10526000089D0A9C9A46521E206B00EB820020F09B
:105270000708002700290CD0002023180A5C83F8B7
:1052800034200A5C12B1401C1028F6D384F8437015
:1052900001E084F83470072D00D30625E5626564CB
:1052A000A764201D00F048F904F1180000F044F94B
:1052B0002461C5F10700A0616462E76484F850705E
:1052C00052464946404600F003F92060002E00D0C7
:1052D0003460BDE8F087000070B500240F4D04EB8A
:1052E000840005EB800000F01CF9641C072CF6D349
:1052F0000B4800F016F90B4800F013F90A4800F0CB
:1053000010F90A4800F00DF9094800F00AF90948B7
:10531000034941631431816370BD00002C030020F8
:10532000B8030020CC030020E0030020F403002099
:10533000080400202400002010B4144900E01146A5
:105340000A688242FBD34B6803EB010C844503D10E
:1053500040681844486008460C68D0F804C00CEB5C
:105360000003A3420CD10A4B1B689A4206D0526834
:10537000624442600A681268026002E0036000E072
:105380000260814200D0086010BC704778000020A5
:10539000600000200749486B0068002805D0486B72
:1053A000C068C0684068886270474FF0FF3088620C
:1053B00070470000240000200A484068B0F1FF3F19
:1053C00007D0502080F31188BFF34F8FBFF36F8F4A
:1053D000FEE7502080F31188BFF34F8FBFF36F8F2C
:1053E000FEE70000800000202DE9F0410546002680
:1053F00000F0A6F9344F386808B9FFF7F1FE786974
:10540000054251D19DB1083515F0070F0FD005F0B9
:105410000700C0F10800054415F0070F07D0502021
:1054200080F31188BFF34F8FBFF36F8FFEE7002D1E
:105430003AD07868854237D824490846046801E0A4
:10544000214604466068A84202D220680028F7D1AD
:105450003868844228D0086800F10806206808608F
:105460006068411B10290FD9601910F0070F07D091
:10547000502080F31188BFF34F8FBFF36F8FFEE78B
:1054800041606560FFF758FF61687868401A78608E
:10549000BA68904200D2B860786908436060002022
:1054A0002060F868401CF86000F0A2FA16F0070FC0
:1054B00007D0502080F31188BFF34F8FBFF36F8F59
:1054C000FEE73046BDE8F081600000207800002053
:1054D000001F4FF080730360001F21F00101016085
:1054E000001F0549016014380260001F6FF00201BF
:1054F0000160203870470000B95300080169436813
:1055000082689A60836842685A604A68824201D120
:1055100082684A60002202610868401E08600868CC
:10552000704700F1080141604FF0FF328260C160B6
:10553000016100210160704700210161704710B4D2
:10554000D1F800C0BCF1FF3F02D000F1080202E038
:10555000026904E01A4653681C686445FAD9536826
:105560004B6099608A60516008610168491C016064
:1055700010BC704742684A6093688B6093685960BA
:10558000916008610168491C01607047502080F3F8
:105590001188BFF34F8FBFF36F8F0A494868401CD3
:1055A000486001280CD10848006810F0FF0F07D0B0
:1055B000502080F31188BFF34F8FBFF36F8FFEE74A
:1055C000704700008000002004ED00E009494868B1
:1055D000002806D0401E4860002801D180F31188C1
:1055E0007047502080F31188BFF34F8FBFF36F8F48
:1055F000FEE700008000002070B500282AD0A0F14E
:105600000804154D60686969084207D1502080F38D
:105610001188BFF34F8FBFF36F8FFEE722683AB157
:10562000502080F31188BFF34F8FBFF36F8FFEE7D9
:105630008843606000F084F86068696808446860C6
:105640002046FFF779FE2869401C2861BDE87040BC
:1056500000F0CEB970BD0000600000204FF0E020E7
:1056600000210161816105494FF47A720968B1FB3B
:10567000F2F1491E416107210161704720000020BD
:1056800010B502460020002A12D00F48006B38B136
:10569000502080F31188BFF34F8FBFF36F8FFEE769
:1056A00000F04EF800211046FFF7F0FC00F0A0F9E2
:1056B000002807D105494FF080500860BFF34F8F95
:1056C000BFF36F8F10BD00002400002004ED00E048
:1056D00010B582B01548002401902346802214A101
:1056E0000094154800F0E6F801280AD0B0F1FF3F19
:1056F0001AD1502080F31188BFF34F8FBFF36F8F03
:10570000FEE7502080F31188BFF34F8FBFF36F8FF8
:105710000A484FF0FF31816201214161C46002B04B
:10572000BDE8104000F044B802B010BD50000020A9
:1057300049444C450000000031520008240000207C
:105740000248016B491C01637047000024000020DF
:10575000154A106B002802D00120D061704700204C
:10576000D0611069B0FA80F0C0F11F000F4900EB62
:10577000800051F8203073B101EB80004168496826
:10578000416000F10803994201D1496841604068D5
:10579000C06810607047502080F31188BFF34F8FAE
:1057A000BFF36F8FFEE70000240000202C030020D1
:1057B00010B582B038480168384A914207D150206C
:1057C00080F31188BFF34F8FBFF36F8FFEE7006840
:1057D0003349884207D1502080F31188BFF34F8F9F
:1057E000BFF36F8FFEE72F4908780190FF20087004
:1057F000087800909DF800009DF8002000F0F0006F
:10580000904207D0502080F31188BFF34F8FBFF331
:105810006F8FFEE79DF80000234C00F050002070D1
:105820000720A0609DF8000010F0800F0BD0A0684A
:10583000401EA0609DF80000400000909DF8000010
:1058400010F0800FF3D1A068032807D0502080F318
:105850001188BFF34F8FBFF36F8FFEE74FF4407097
:10586000A060019808701148016841F4700101605E
:10587000016841F070410160FFF7F0FE00206060B8
:10588000FAF774FD0A48016841F040410160FAF7F7
:1058900059FD02B0002010BD00ED00E071C20F41C3
:1058A00070C20F4100E400E08000002020ED00E025
:1058B00034EF00E02DE9F04F85B081460F9F0E9E3A
:1058C0008A4690469B464FEA8800FFF78DFD0546C5
:1058D00028000AD05420FFF787FD04460CB1256349
:1058E00004E02846FFF788FE00E000248CB1002089
:1058F00003905B4642465146019700960294484603
:10590000FFF7AAFC2046FFF7FDFB05B00120BDE82C
:10591000F08F05B04FF0FF30BDE8F08F2DE9F04774
:105920000026314F386B002805D0B869401CB8619B
:105930003046BDE8F087F868451CFD609DB9786B7E
:10594000006838B1502080F31188BFF34F8FBFF348
:105950006F8FFEE7786BB96B7963B863386A401C68
:105960003862FFF717FDB86ADFF8808085420FD3F1
:105970004FF00109786B006838B1786BC068C46873
:105980006068854212D2B86202E04FF0FF30B86220
:105990003868C06A00EB800058F82000012800D960
:1059A0000126F8690028C3D00126C1E7201DFFF7B2
:1059B000A5FDA06A18B104F11800FFF79FFDE16A88
:1059C0003A6909FA01F01043386101EB810008EBF4
:1059D0008000211DFFF7CEFDE06A3968C96A884260
:1059E000C8D30126C6E70000240000202C030020B5
:1059F0002DE9F0470024A0462D4D286B002807D044
:105A0000FFF7C4FD286B401E2863286B40B149E0B6
:105A1000502080F31188BFF34F8FBFF36F8FFEE7E5
:105A2000A86800283ED0234F3868012600B3A7F1AC
:105A3000B409F868C46804F11800FFF75FFD201D81
:105A4000FFF75CFDE06A2A6906FA00F1114329615B
:105A500000EB800009EB8000211DFFF78BFDE06A61
:105A60002968C96A884200D3EE6138680028E0D10D
:105A70000CB1FFF78FFCAC6944B1FFF74FFF00B1E9
:105A8000EE61641E002CF8D10020A861E86948B1DD
:105A90004FF0010808494FF080500860BFF34F8F66
:105AA000BFF36F8FFFF792FD4046BDE8F08700001F
:105AB00024000020E003002004ED00E010B50029E0
:105AC0000AD00878002807D005487844FBF7BCFDC9
:105AD000002801D0002010BD0248784410BD00000D
